:1000000045C0000054C000005DC0000069C0000091
:100010004DC000004BC0000049C0000047C00000B8
:1000200045C0000043C0000041C000003FC00000C8
:100030003DC000003BC0000039C0000037C00000D8
:1000400035C0000033C0000031C000002FC00000E8
:100050002DC000002BC0000029C0000027C00000F8
:1000600025C0000023C0000021C000001FC0000008
:100070001DC0000087C0000019C0000017C00000AC
:1000800015C0000013C0000011C0000011241FBEE5
:10009000CFEFD0E1DEBFCDBF21E0A0E0B1E001C0F5
:1000A0001D92A830B207E1F7B8D092C2A9CF1F9233
:1000B0000F920FB60F9211241BBA0F900FBE0F9024
:1000C0001F9018951F920F920FB60F9211248F93C5
:1000D0008FEF8BBB8F910F900FBE0F901F901895D5
:1000E0001F920F920FB60F9211240BB60F922F93FF
:1000F0003F934F935F936F937F938F939F93AF93B0
:10010000BF93EF93FF9380916A008073803201F573
:1001100064B570E080E090E043D160930401709397
:100120000501809306019093070126E933E44BE033
:1001300050E4C4D1609300017093010180930201E7
:1001400090930301EAE6F0E080818063808307C03A
:1001500014BCEAE6F0E080818F7C80628083FF91AE
:10016000EF91BF91AF919F918F917F916F915F912F
:100170004F913F912F910F900BBE0F900FBE0F909C
:100180001F9018951F920F920FB60F9211240BB665
:100190000F922F933F934F935F936F937F938F9320
:1001A0009F93AF93BF93EF93FF938DE19BEF90935A
:1001B000890080938800B5D06091000170910101A1
:1001C0008091020190910301BAD0CB0186D08CE2DC
:1001D0007CD060910401709105018091060190919D
:1001E0000701ADD0CB0179D08DE06FD01BBC1ABC1C
:1001F00019BC18BCFF91EF91BF91AF919F918F9166
:100200007F916F915F914F913F912F910F900BBE16
:100210000F900FBE0F901F90189509D00FD015D0DA
:1002200021D025D032D036D040D07894FFCF8FEF78
:100230008ABB84BB11BA15BA8BBB089511BA8AE385
:1002400080936A0087E089BF089582EA8FBD89E1C3
:100250008EBD80E293E097BD86BD1BBC1ABC19BC65
:1002600018BC089585E085BD84E684BD089510928C
:100270008B0084E080938A0080937D008DE19BEF6A
:100280009093890080938800089580E487B987E877
:1002900086B9089583E082B91BB888E18AB986E0FF
:1002A0008093950088E089B9089581B3837F886041
:1002B00081BB10929B0088E180939A0086E0809336
:1002C0009D0088E0809399000895EBE9F0E090812B
:1002D00095FFFDCF80939C000895CF93DF93EC01B1
:1002E00068EE73E04ED180E3860FEFDF24E630E066
:1002F000CE01B90146D1CB01B90143D1805DE5DF23
:100300002AE030E0CE01B9013CD1C82FCB01B901C0
:1003100038D1805DDADF80E38C0FD7DFDF91CF91BA
:1003200008958EEF85BB9AE09A95F1F700C091E0B1
:1003300095BB95E39A95F1F7000085BB089504D02D
:100340006894B111B5C0089598D088F09F5790F087
:10035000B92F9927B751A0F0D1F0660F771F881FEA
:10036000991F1AF0BA95C9F712C0B13081F09FD029
:10037000B1E008959CC0672F782F8827B85F39F0C7
:10038000B93FCCF3869577956795B395D9F73EF449
:1003900090958095709561957F4F8F4F9F4F0895F1
:1003A000E89409C097FB3EF490958095709561950F
:1003B0007F4F8F4F9F4F9923A9F0F92F96E9BB27C5
:1003C0009395F695879577956795B795F111F8CF41
:1003D000FAF4BB0F11F460FF1BC06F5F7F4F8F4FAC
:1003E0009F4F16C0882311F096E911C0772321F0A2
:1003F0009EE8872F762F05C0662371F096E8862F3A
:1004000070E060E02AF09A95660F771F881FDAF790
:10041000880F9695879597F9089597F99F6780E8D3
:1004200070E060E008959FEF80EC089500240A9446
:100430001616170618060906089500240A941216BF
:100440001306140605060895092E0394000C11F4F2
:10045000882352F0BB0F40F4BF2B11F460FF04C09F
:100460006F5F7F4F8F4F9F4F089557FD9058440FF8
:10047000551F59F05F3F71F04795880F97FB991F03
:1004800061F09F3F79F087950895121613061406C0
:10049000551FF2CF4695F1DF08C01616170618064D
:1004A000991FF1CF86957105610508940895E89428
:1004B000BB2766277727CB0197F908950BD0C4CFC8
:1004C000B5DF28F0BADF18F0952309F0A6CFABCF3F
:1004D0001124EECFCADFA0F3959FD1F3950F50E022
:1004E000551F629FF001729FBB27F00DB11D639FE6
:1004F000AA27F00DB11DAA1F649F6627B00DA11D8C
:10050000661F829F2227B00DA11D621F739FB00D31
:10051000A11D621F839FA00D611D221F749F3327A1
:10052000A00D611D231F849F600D211D822F762F3A
:100530006A2F11249F5750408AF0E1F088234AF037
:10054000EE0FFF1FBB1F661F771F881F9150504083
:10055000A9F79E3F510570F060CFAACF5F3FECF343
:10056000983EDCF3869577956795B795F795E7956F
:100570009F5FC1F7FE2B880F911D9695879597F980
:10058000089597FB072E16F4009406D077FD08D047
:100590000BD007FC05D03EF4909581959F4F0895B0
:1005A000709561957F4F0895AA1BBB1B51E107C051
:1005B000AA1FBB1FA617B70710F0A61BB70B881FF3
:1005C000991F5A95A9F780959095BC01CD01089582
:0405D000F894FFCFCD
:00000001FF
